{
  "_format": "hh-sol-artifact-1",
  "contractName": "SimpleFundraiser",
  "sourceName": "contracts/SimpleFundraiser.sol",
  "abi": [
    {
      "inputs": [
        {
          "internalType": "string",
          "name": "_name",
          "type": "string"
        },
        {
          "internalType": "uint256",
          "name": "_goalAmount",
          "type": "uint256"
        },
        {
          "internalType": "address",
          "name": "_owner",
          "type": "address"
        }
      ],
      "stateMutability": "nonpayable",
      "type": "constructor"
    },
    {
      "anonymous": false,
      "inputs": [
        {
          "indexed": true,
          "internalType": "address",
          "name": "contributor",
          "type": "address"
        },
        {
          "indexed": false,
          "internalType": "uint256",
          "name": "amount",
          "type": "uint256"
        }
      ],
      "name": "ContributionReceived",
      "type": "event"
    },
    {
      "anonymous": false,
      "inputs": [
        {
          "indexed": false,
          "internalType": "uint256",
          "name": "finalAmount",
          "type": "uint256"
        }
      ],
      "name": "FundraiserClosed",
      "type": "event"
    },
    {
      "anonymous": false,
      "inputs": [
        {
          "indexed": true,
          "internalType": "address",
          "name": "owner",
          "type": "address"
        },
        {
          "indexed": false,
          "internalType": "uint256",
          "name": "amount",
          "type": "uint256"
        }
      ],
      "name": "FundsWithdrawn",
      "type": "event"
    },
    {
      "anonymous": false,
      "inputs": [
        {
          "indexed": false,
          "internalType": "uint256",
          "name": "totalAmount",
          "type": "uint256"
        }
      ],
      "name": "GoalReached",
      "type": "event"
    },
    {
      "inputs": [],
      "name": "closeFundraiser",
      "outputs": [],
      "stateMutability": "nonpayable",
      "type": "function"
    },
    {
      "inputs": [],
      "name": "contribute",
      "outputs": [],
      "stateMutability": "payable",
      "type": "function"
    },
    {
      "inputs": [
        {
          "internalType": "address",
          "name": "",
          "type": "address"
        }
      ],
      "name": "contributions",
      "outputs": [
        {
          "internalType": "uint256",
          "name": "",
          "type": "uint256"
        }
      ],
      "stateMutability": "view",
      "type": "function"
    },
    {
      "inputs": [
        {
          "internalType": "uint256",
          "name": "",
          "type": "uint256"
        }
      ],
      "name": "contributors",
      "outputs": [
        {
          "internalType": "address",
          "name": "",
          "type": "address"
        }
      ],
      "stateMutability": "view",
      "type": "function"
    },
    {
      "inputs": [],
      "name": "currentAmount",
      "outputs": [
        {
          "internalType": "uint256",
          "name": "",
          "type": "uint256"
        }
      ],
      "stateMutability": "view",
      "type": "function"
    },
    {
      "inputs": [],
      "name": "getBalance",
      "outputs": [
        {
          "internalType": "uint256",
          "name": "",
          "type": "uint256"
        }
      ],
      "stateMutability": "view",
      "type": "function"
    },
    {
      "inputs": [
        {
          "internalType": "address",
          "name": "contributor",
          "type": "address"
        }
      ],
      "name": "getContribution",
      "outputs": [
        {
          "internalType": "uint256",
          "name": "",
          "type": "uint256"
        }
      ],
      "stateMutability": "view",
      "type": "function"
    },
    {
      "inputs": [
        {
          "internalType": "uint256",
          "name": "index",
          "type": "uint256"
        }
      ],
      "name": "getContributor",
      "outputs": [
        {
          "internalType": "address",
          "name": "",
          "type": "address"
        }
      ],
      "stateMutability": "view",
      "type": "function"
    },
    {
      "inputs": [],
      "name": "getContributorCount",
      "outputs": [
        {
          "internalType": "uint256",
          "name": "",
          "type": "uint256"
        }
      ],
      "stateMutability": "view",
      "type": "function"
    },
    {
      "inputs": [],
      "name": "getFundraiserDetails",
      "outputs": [
        {
          "internalType": "string",
          "name": "_name",
          "type": "string"
        },
        {
          "internalType": "uint256",
          "name": "_goalAmount",
          "type": "uint256"
        },
        {
          "internalType": "uint256",
          "name": "_currentAmount",
          "type": "uint256"
        },
        {
          "internalType": "address",
          "name": "_owner",
          "type": "address"
        },
        {
          "internalType": "bool",
          "name": "_isActive",
          "type": "bool"
        },
        {
          "internalType": "uint256",
          "name": "_contributorCount",
          "type": "uint256"
        },
        {
          "internalType": "uint256",
          "name": "_progress",
          "type": "uint256"
        }
      ],
      "stateMutability": "view",
      "type": "function"
    },
    {
      "inputs": [],
      "name": "getProgress",
      "outputs": [
        {
          "internalType": "uint256",
          "name": "",
          "type": "uint256"
        }
      ],
      "stateMutability": "view",
      "type": "function"
    },
    {
      "inputs": [],
      "name": "goalAmount",
      "outputs": [
        {
          "internalType": "uint256",
          "name": "",
          "type": "uint256"
        }
      ],
      "stateMutability": "view",
      "type": "function"
    },
    {
      "inputs": [],
      "name": "isActive",
      "outputs": [
        {
          "internalType": "bool",
          "name": "",
          "type": "bool"
        }
      ],
      "stateMutability": "view",
      "type": "function"
    },
    {
      "inputs": [],
      "name": "isGoalReached",
      "outputs": [
        {
          "internalType": "bool",
          "name": "",
          "type": "bool"
        }
      ],
      "stateMutability": "view",
      "type": "function"
    },
    {
      "inputs": [],
      "name": "name",
      "outputs": [
        {
          "internalType": "string",
          "name": "",
          "type": "string"
        }
      ],
      "stateMutability": "view",
      "type": "function"
    },
    {
      "inputs": [],
      "name": "owner",
      "outputs": [
        {
          "internalType": "address",
          "name": "",
          "type": "address"
        }
      ],
      "stateMutability": "view",
      "type": "function"
    },
    {
      "inputs": [],
      "name": "withdraw",
      "outputs": [],
      "stateMutability": "nonpayable",
      "type": "function"
    },
    {
      "stateMutability": "payable",
      "type": "receive"
    }
  ],
  "bytecode": "0x60806040523480156200001157600080fd5b5060405162001d7438038062001d748339818101604052810190620000379190620003ef565b600082116200007d576040517f08c379a00000000000000000000000000000000000000000000000000000000081526004016200007490620004f1565b60405180910390fd5b600073ffffffffffffffffffffffffffffffffffffffff168173ffffffffffffffffffffffffffffffffffffffff1603620000ef576040517f08c379a0000000000000000000000000000000000000000000000000000000008152600401620000e69062000563565b60405180910390fd5b600083511162000136576040517f08c379a00000000000000000000000000000000000000000000000000000000081526004016200012d90620005d5565b60405180910390fd5b826000908162000147919062000838565b508160018190555080600360006101000a81548173ffffffffffffffffffffffffffffffffffffffff021916908373ffffffffffffffffffffffffffffffffffffffff1602179055506001600360146101000a81548160ff02191690831515021790555060006002819055505050506200091f565b6000604051905090565b600080fd5b600080fd5b600080fd5b600080fd5b6000601f19601f8301169050919050565b7f4e487b7100000000000000000000000000000000000000000000000000000000600052604160045260246000fd5b6200022582620001da565b810181811067ffffffffffffffff82111715620002475762000246620001eb565b5b80604052505050565b60006200025c620001bc565b90506200026a82826200021a565b919050565b600067ffffffffffffffff8211156200028d576200028c620001eb565b5b6200029882620001da565b9050602081019050919050565b60005b83811015620002c5578082015181840152602081019050620002a8565b60008484015250505050565b6000620002e8620002e2846200026f565b62000250565b905082815260208101848484011115620003075762000306620001d5565b5b62000314848285620002a5565b509392505050565b600082601f830112620003345762000333620001d0565b5b815162000346848260208601620002d1565b91505092915050565b6000819050919050565b62000364816200034f565b81146200037057600080fd5b50565b600081519050620003848162000359565b92915050565b600073ffffffffffffffffffffffffffffffffffffffff82169050919050565b6000620003b7826200038a565b9050919050565b620003c981620003aa565b8114620003d557600080fd5b50565b600081519050620003e981620003be565b92915050565b6000806000606084860312156200040b576200040a620001c6565b5b600084015167ffffffffffffffff8111156200042c576200042b620001cb565b5b6200043a868287016200031c565b93505060206200044d8682870162000373565b92505060406200046086828701620003d8565b9150509250925092565b600082825260208201905092915050565b7f476f616c20616d6f756e74206d7573742062652067726561746572207468616e60008201527f2030000000000000000000000000000000000000000000000000000000000000602082015250565b6000620004d96022836200046a565b9150620004e6826200047b565b604082019050919050565b600060208201905081810360008301526200050c81620004ca565b9050919050565b7f4f776e657220616464726573732063616e6e6f74206265207a65726f00000000600082015250565b60006200054b601c836200046a565b9150620005588262000513565b602082019050919050565b600060208201905081810360008301526200057e816200053c565b9050919050565b7f4e616d652063616e6e6f7420626520656d707479000000000000000000000000600082015250565b6000620005bd6014836200046a565b9150620005ca8262000585565b602082019050919050565b60006020820190508181036000830152620005f081620005ae565b9050919050565b600081519050919050565b7f4e487b7100000000000000000000000000000000000000000000000000000000600052602260045260246000fd5b600060028204905060018216806200064a57607f821691505b60208210810362000660576200065f62000602565b5b50919050565b60008190508160005260206000209050919050565b60006020601f8301049050919050565b600082821b905092915050565b600060088302620006ca7fffffffffffffffffffffffffffffffffffffffffffffffffffffffffffffffff826200068b565b620006d686836200068b565b95508019841693508086168417925050509392505050565b6000819050919050565b600062000719620007136200070d846200034f565b620006ee565b6200034f565b9050919050565b6000819050919050565b6200073583620006f8565b6200074d620007448262000720565b84845462000698565b825550505050565b600090565b6200076462000755565b620007718184846200072a565b505050565b5b8181101562000799576200078d6000826200075a565b60018101905062000777565b5050565b601f821115620007e857620007b28162000666565b620007bd846200067b565b81016020851015620007cd578190505b620007e5620007dc856200067b565b83018262000776565b50505b505050565b600082821c905092915050565b60006200080d60001984600802620007ed565b1980831691505092915050565b6000620008288383620007fa565b9150826002028217905092915050565b6200084382620005f7565b67ffffffffffffffff8111156200085f576200085e620001eb565b5b6200086b825462000631565b620008788282856200079d565b600060209050601f831160018114620008b057600084156200089b578287015190505b620008a785826200081a565b86555062000917565b601f198416620008c08662000666565b60005b82811015620008ea57848901518255600182019150602085019450602081019050620008c3565b868310156200090a578489015162000906601f891682620007fa565b8355505b6001600288020188555050505b505050505050565b611445806200092f6000396000f3fe6080604052600436106101025760003560e01c806342e94c9011610095578063c6f5b0e011610064578063c6f5b0e014610328578063d3eb6f6114610365578063d7bb99ba14610390578063eee0e8401461039a578063f441b1c8146103cb57610111565b806342e94c901461027e5780635fcf17e0146102bb5780638da5cb5b146102d2578063939c4456146102fd57610111565b8063253da8bd116100d1578063253da8bd146101d45780632636b945146101ff5780633cb5d1001461022a5780633ccfd60b1461026757610111565b806306fdde031461011657806312065fe01461014157806321eff7fc1461016c57806322f3e2d4146101a957610111565b366101115761010f6103f6565b005b600080fd5b34801561012257600080fd5b5061012b610637565b6040516101389190610d4c565b60405180910390f35b34801561014d57600080fd5b506101566106c5565b6040516101639190610d87565b60405180910390f35b34801561017857600080fd5b50610193600480360381019061018e9190610e05565b6106cd565b6040516101a09190610d87565b60405180910390f35b3480156101b557600080fd5b506101be610716565b6040516101cb9190610e4d565b60405180910390f35b3480156101e057600080fd5b506101e9610729565b6040516101f69190610d87565b60405180910390f35b34801561020b57600080fd5b50610214610736565b6040516102219190610d87565b60405180910390f35b34801561023657600080fd5b50610251600480360381019061024c9190610e94565b61073c565b60405161025e9190610ed0565b60405180910390f35b34801561027357600080fd5b5061027c61077b565b005b34801561028a57600080fd5b506102a560048036038101906102a09190610e05565b610995565b6040516102b29190610d87565b60405180910390f35b3480156102c757600080fd5b506102d06109ad565b005b3480156102de57600080fd5b506102e7610a93565b6040516102f49190610ed0565b60405180910390f35b34801561030957600080fd5b50610312610ab9565b60405161031f9190610d87565b60405180910390f35b34801561033457600080fd5b5061034f600480360381019061034a9190610e94565b610af0565b60405161035c9190610ed0565b60405180910390f35b34801561037157600080fd5b5061037a610b7f565b6040516103879190610e4d565b60405180910390f35b610398610b8e565b005b3480156103a657600080fd5b506103af610b98565b6040516103c29796959493929190610eeb565b60405180910390f35b3480156103d757600080fd5b506103e0610cb6565b6040516103ed9190610d87565b60405180910390f35b600360149054906101000a900460ff16610445576040517f08c379a000000000000000000000000000000000000000000000000000000000815260040161043c90610fad565b60405180910390fd5b60003411610488576040517f08c379a000000000000000000000000000000000000000000000000000000000815260040161047f9061103f565b60405180910390fd5b6000600460003373ffffffffffffffffffffffffffffffffffffffff1673ffffffffffffffffffffffffffffffffffffffff1681526020019081526020016000205403610533576005339080600181540180825580915050600190039060005260206000200160009091909190916101000a81548173ffffffffffffffffffffffffffffffffffffffff021916908373ffffffffffffffffffffffffffffffffffffffff1602179055505b34600460003373ffffffffffffffffffffffffffffffffffffffff1673ffffffffffffffffffffffffffffffffffffffff1681526020019081526020016000206000828254610582919061108e565b92505081905550346002600082825461059b919061108e565b925050819055503373ffffffffffffffffffffffffffffffffffffffff167f1bb460ccaaf70fbacfec17a376f8acbd278c1405590ffcc8ebe4b88daf4f64ad346040516105e89190610d87565b60405180910390a260015460025410610635577ffbfd8ab7c24300fa9888cd721c8565a7da56759384781283684dcf7c7c4a846b60025460405161062c9190610d87565b60405180910390a15b565b60008054610644906110f1565b80601f0160208091040260200160405190810160405280929190818152602001828054610670906110f1565b80156106bd5780601f10610692576101008083540402835291602001916106bd565b820191906000526020600020905b8154815290600101906020018083116106a057829003601f168201915b505050505081565b600047905090565b6000600460008373ffffffffffffffffffffffffffffffffffffffff1673ffffffffffffffffffffffffffffffffffffffff168152602001908152602001600020549050919050565b600360149054906101000a900460ff1681565b6000600580549050905090565b60015481565b6005818154811061074c57600080fd5b906000526020600020016000915054906101000a900473ffffffffffffffffffffffffffffffffffffffff1681565b600360009054906101000a900473ffffffffffffffffffffffffffffffffffffffff1673ffffffffffffffffffffffffffffffffffffffff163373ffffffffffffffffffffffffffffffffffffffff161461080b576040517f08c379a000000000000000000000000000000000000000000000000000000000815260040161080290611194565b60405180910390fd5b6000471161084e576040517f08c379a000000000000000000000000000000000000000000000000000000000815260040161084590611200565b60405180910390fd5b60004790506000600360009054906101000a900473ffffffffffffffffffffffffffffffffffffffff1673ffffffffffffffffffffffffffffffffffffffff168260405161089b90611251565b60006040518083038185875af1925050503d80600081146108d8576040519150601f19603f3d011682016040523d82523d6000602084013e6108dd565b606091505b5050905080610921576040517f08c379a0000000000000000000000000000000000000000000000000000000008152600401610918906112b2565b60405180910390fd5b600360009054906101000a900473ffffffffffffffffffffffffffffffffffffffff1673ffffffffffffffffffffffffffffffffffffffff167feaff4b37086828766ad3268786972c0cd24259d4c87a80f9d3963a3c3d999b0d836040516109899190610d87565b60405180910390a25050565b60046020528060005260406000206000915090505481565b600360009054906101000a900473ffffffffffffffffffffffffffffffffffffffff1673ffffffffffffffffffffffffffffffffffffffff163373ffffffffffffffffffffffffffffffffffffffff1614610a3d576040517f08c379a0000000000000000000000000000000000000000000000000000000008152600401610a3490611194565b60405180910390fd5b6000600360146101000a81548160ff0219169083151502179055507f82cc20c155f65d1de1f5be20df0e27245e8bb62e2ffd3c3764356cfd4ce6ca0a600254604051610a899190610d87565b60405180910390a1565b600360009054906101000a900473ffffffffffffffffffffffffffffffffffffffff1681565b60008060015403610acd5760009050610aed565b600154612710600254610ae091906112d2565b610aea9190611343565b90505b90565b60006005805490508210610b39576040517f08c379a0000000000000000000000000000000000000000000000000000000008152600401610b30906113c0565b60405180910390fd5b60058281548110610b4d57610b4c6113e0565b5b9060005260206000200160009054906101000a900473ffffffffffffffffffffffffffffffffffffffff169050919050565b60006001546002541015905090565b610b966103f6565b565b60606000806000806000806000600154600254600360009054906101000a900473ffffffffffffffffffffffffffffffffffffffff16600360149054906101000a900460ff16600580549050600060015411610bf5576000610c13565b600154612710600254610c0891906112d2565b610c129190611343565b5b868054610c1f906110f1565b80601f0160208091040260200160405190810160405280929190818152602001828054610c4b906110f1565b8015610c985780601f10610c6d57610100808354040283529160200191610c98565b820191906000526020600020905b815481529060010190602001808311610c7b57829003601f168201915b50505050509650965096509650965096509650965090919293949596565b60025481565b600081519050919050565b600082825260208201905092915050565b60005b83811015610cf6578082015181840152602081019050610cdb565b60008484015250505050565b6000601f19601f8301169050919050565b6000610d1e82610cbc565b610d288185610cc7565b9350610d38818560208601610cd8565b610d4181610d02565b840191505092915050565b60006020820190508181036000830152610d668184610d13565b905092915050565b6000819050919050565b610d8181610d6e565b82525050565b6000602082019050610d9c6000830184610d78565b92915050565b600080fd5b600073ffffffffffffffffffffffffffffffffffffffff82169050919050565b6000610dd282610da7565b9050919050565b610de281610dc7565b8114610ded57600080fd5b50565b600081359050610dff81610dd9565b92915050565b600060208284031215610e1b57610e1a610da2565b5b6000610e2984828501610df0565b91505092915050565b60008115159050919050565b610e4781610e32565b82525050565b6000602082019050610e626000830184610e3e565b92915050565b610e7181610d6e565b8114610e7c57600080fd5b50565b600081359050610e8e81610e68565b92915050565b600060208284031215610eaa57610ea9610da2565b5b6000610eb884828501610e7f565b91505092915050565b610eca81610dc7565b82525050565b6000602082019050610ee56000830184610ec1565b92915050565b600060e0820190508181036000830152610f05818a610d13565b9050610f146020830189610d78565b610f216040830188610d78565b610f2e6060830187610ec1565b610f3b6080830186610e3e565b610f4860a0830185610d78565b610f5560c0830184610d78565b98975050505050505050565b7f46756e64726169736572206973206e6f74206163746976650000000000000000600082015250565b6000610f97601883610cc7565b9150610fa282610f61565b602082019050919050565b60006020820190508181036000830152610fc681610f8a565b9050919050565b7f436f6e747269627574696f6e206d75737420626520677265617465722074686160008201527f6e20300000000000000000000000000000000000000000000000000000000000602082015250565b6000611029602383610cc7565b915061103482610fcd565b604082019050919050565b600060208201905081810360008301526110588161101c565b9050919050565b7f4e487b7100000000000000000000000000000000000000000000000000000000600052601160045260246000fd5b600061109982610d6e565b91506110a483610d6e565b92508282019050808211156110bc576110bb61105f565b5b92915050565b7f4e487b7100000000000000000000000000000000000000000000000000000000600052602260045260246000fd5b6000600282049050600182168061110957607f821691505b60208210810361111c5761111b6110c2565b5b50919050565b7f4f6e6c79206f776e65722063616e2063616c6c20746869732066756e6374696f60008201527f6e00000000000000000000000000000000000000000000000000000000000000602082015250565b600061117e602183610cc7565b915061118982611122565b604082019050919050565b600060208201905081810360008301526111ad81611171565b9050919050565b7f4e6f2066756e647320746f207769746864726177000000000000000000000000600082015250565b60006111ea601483610cc7565b91506111f5826111b4565b602082019050919050565b60006020820190508181036000830152611219816111dd565b9050919050565b600081905092915050565b50565b600061123b600083611220565b91506112468261122b565b600082019050919050565b600061125c8261122e565b9150819050919050565b7f5472616e73666572206661696c65640000000000000000000000000000000000600082015250565b600061129c600f83610cc7565b91506112a782611266565b602082019050919050565b600060208201905081810360008301526112cb8161128f565b9050919050565b60006112dd82610d6e565b91506112e883610d6e565b92508282026112f681610d6e565b9150828204841483151761130d5761130c61105f565b5b5092915050565b7f4e487b7100000000000000000000000000000000000000000000000000000000600052601260045260246000fd5b600061134e82610d6e565b915061135983610d6e565b92508261136957611368611314565b5b828204905092915050565b7f496e646578206f7574206f6620626f756e647300000000000000000000000000600082015250565b60006113aa601383610cc7565b91506113b582611374565b602082019050919050565b600060208201905081810360008301526113d98161139d565b9050919050565b7f4e487b7100000000000000000000000000000000000000000000000000000000600052603260045260246000fdfea2646970667358221220c826b782edb50b5e641d6331db9469b9bd3ef7104cd57f74840f9e8ef1e8187264736f6c63430008130033",
  "linkReferences": {},
  "deployedLinkReferences": {}
}